:040000006EEF04F0AB
:1000080000C017F00CC016F00DC015F0F2A21DD0FC
:10001800340E0C6EF10E0D6E0D2EFED70C2EFCD785
:100028000000000081A010D0000184B30DD0000EA4
:10003800471802E1000E461805E1010E466E000E53
:10004800476E02D0466A476AF292F0A030D0340E6A
:100058000C6EF10E0D6E0D2EFED70C2EFCD7000087
:10006800000081A223D0000184B320D08483000E35
:10007800471802E1010E46180CE13C0E186E000EFE
:10008800196E8491CD90850ED76EEE0ED66ED58EF4
:100098000DD00A0E186E000E196E336A346A848108
:1000A800D59E0B0ECF6EDC0ECE6ECD80F090F2A4F6
:1000B8001BD00001850ED76EEE0ED66E84A313D02A
:1000C80084B111D0010E185E000E195A800E006E10
:1000D800800E1918005C02E11850000804E3186A41
:1000E800196AD59E8493F2949EA029D000010B0E24
:1000F800CF6EDC0ECE6E84A321D084A11FD0334AEC
:10010800342A800E3418006E800E005C02E1040E62
:10011800335C14E3336A346A010E185E000E195A10
:10012800800E006E800E1918005C02E1185000085D
:1001380005E30001186A196ACD9084939E9017C050
:0C01480000F016C00CF015C00DF0110006
:0A015400210E0D6E0D2EFED71200D5
:10015E000F0E0C6E470E0D6E0D2EFED70C2EFCD70D
:06016E0000000000120079
:0601740000000000120073
:10017A00086A096A100E0C6E0134083609360450F2
:10018A00085E0550D8A0053C095ED8B007D00450D7
:10019A0008260550D8B0053C0926D8900036013605
:0601AA000C2EEAD7120042
:1001B0000001B1BF02D08C9601D08C86B1BD02D0B7
:1001C0008C9401D08C84B1BB02D08C9201D08C82F3
:1001D000B1B902D08C9001D08C8084B502D08C88CB
:1001E00001D08C988C8AC6DF8C9AB1B702D08C96DD
:1001F00001D08C86B1B502D08C9401D08C84B1B37F
:1002000002D08C9201D08C82B1B102D08C9001D0FE
:100210008C8084B502D08C8801D08C988C8AAADF1F
:0E0220008C9A84A502D09BDF01D094DF1200DF
:0E022E0000018495AAC0B1F0BCDF84851200E7
:0C023C000E0E0D6E0D2EFED700001200FD
:100248000001AE6B050EAE5D0AE2AE51AC25E16E63
:10025800000EAD21E26E200EE66EAE2BF3D7AE5146
:10026800AC25E16E000EAD21E26EE66AAE07AE5136
:10027800AC25AF6F000EAD21B06F0A0E046E000EF4
:10028800056EAAC000F0ABC001F073DF08C000F033
:1002980009C001F0300E0026AFC0E1FFB0C0E2FF98
:1002A80000C0E6FF0A0E046E000E056EAAC000F03C
:1002B800ABC001F05EDF00C0AAF001C0ABF0000ED9
:1002C800011802E1000E001801E102D0AE07CFD7F5
:0202D800120012
:1002DA0010D0800E0001A06F1AD0C00EA06F17D0E8
:1002EA00940EA06F14D0D40EA06F11D0800EA06F00
:1002FA000ED00001A051010AECE0A051020AEDE083
:10030A00A051030AEDE0A051040AEDE0EFD7A105E0
:10031A00006EA051002600C0A0F000C0B1F043DF7B
:10032A008495A46BA451A225E96E000EA321EA6E5E
:10033A00EE520BE0A451A225E96E000EA321EA6E4B
:0E034A00EECFAAF06FDFA42BEDD78485120052
:10035800830EC216A0C000F0003600900036009050
:100368000050C21267DFC282C2A201D0FDD7C4CF3B
:0E03780001F0006AC3500012000E01121200C4
:10038600959A959895909592959495968C9A8C9821
:100396008C968C948C928C90DFDEDEDEDDDE8C8299
:1003A6008C808C8AE4DE8C9AD7DE8C8AE0DE8C9A8E
:1003B600D3DE8C8ADCDE8C9ACFDE8C908C8AD7DEFC
:1003C6008C9ACADE8C8AD3DE8C9A8C928C868C8A26
:1003D600CEDE8C9AC1DE8C968C808C8AC8DE8C9A96
:1003E6008C908C8AC4DE8C9AB7DE8C8AC0DE8C9A9E
:1003F6008C808C8ABCDE8C9AAFDE8C908C8AB7DEC1
:100406008C9A8C868C848C828C808C8AB0DE8C9ABA
:08041600A3DE00018485120041
:10041E00580E00019C6F030E9D6FA00E9E6F000E76
:10042E009F6FC26A321C006E0050C116070EC012BA
:06043E00C08EC280120016
:100444000900F5CFE6FF0006FBE10106F9E1120021
:100454000B6A0A6A096A086A0E6A03340836045089
:10046400085E0550D8A0053C095E0650D8A0063C9D
:100474000A5E0750D8A0073C0B5EE86AD8A0010EBC
:100484000E5E0336070E0C6E0334083609360A3640
:100494000B360E36045003A012D0085E0550D8A0C7
:1004A400053C095E0650D8A0063C0A5E0750D8A059
:1004B400073C0B5EE86AD8A0010E0E5E11D0082638
:1004C4000550D8B0053C09260650D8B0063C0A268B
:1004D4000750D8B0073C0B26E86AD8B0010E0E26A8
:1004E40003360C2ED1D70234083609360A360B36B9
:1004F4000E36045003A012D0085E0550D8A0053C67
:10050400095E0650D8A0063C0A5E0750D8A0073CF6
:100514000B5EE86AD8A0010E0E5E11D008260550C5
:10052400D8B0053C09260650D8B0063C0A26075028
:10053400D8B0073C0B26E86AD8B0010E0E26023666
:10054400070E0C6E0234083609360A360B360E36A0
:10055400045002A012D0085E0550D8A0053C095EE4
:100564000650D8A0063C0A5E0750D8A0073C0B5E94
:10057400E86AD8A0010E0E5E11D008260550D8B046
:10058400053C09260650D8B0063C0A260750D8B0C8
:10059400073C0B26E86AD8B0010E0E2602360C2E54
:1005A400D1D70134083609360A360B360E360450D4
:1005B40002A012D0085E0550D8A0053C095E065082
:1005C400D8A0063C0A5E0750D8A0073C0B5EE86A38
:1005D400D8A0010E0E5E11D008260550D8B0053CF7
:1005E40009260650D8B0063C0A260750D8B0073C66
:1005F4000B26E86AD8B0010E0E260136070E0C6EE3
:100604000134083609360A360B360E36045001A07A
:1006140012D0085E0550D8A0053C095E0650D8A04B
:10062400063C0A5E0750D8A0073C0B5EE86AD8A0D7
:10063400010E0E5E11D008260550D8B0053C0926DF
:100644000650D8B0063C0A260750D8B0073C0B2603
:10065400E86AD8B0010E0E2601360C2ED1D700342C
:10066400083609360A360B360E36045001A012D06D
:10067400085E0550D8A0053C095E0650D8A0063C8B
:100684000A5E0750D8A0073C0B5EE86AD8A0010EAA
:100694000E5E11D008260550D8B0053C0926065038
:1006A400D8B0063C0A260750D8B0073C0B26E86AA7
:1006B400D8B0010E0E260036070E0C6E0034083634
:1006C40009360A360B360E36045000A012D0085EE6
:1006D4000550D8A0053C095E0650D8A0063C0A5E29
:1006E4000750D8A0073C0B5EE86AD8A0010E0E5E46
:1006F40011D008260550D8B0053C09260650D8B0BC
:10070400063C0A260750D8B0073C0B26E86AD8B046
:10071400010E0E2600360C2ED1D700B00ED0045098
:1007240008260550D8B0053C09260650D8B0063C2A
:0C0734000A260750D8B0073C0B26120024
:100740000001A26BA36BA0C003F0A1C004F0A0C085
:1007500005F0A1C006F003C0E9FF04C0EAFFEE50B7
:10076000200A04E1A251A31101E110D0010EA26FF1
:10077000000EA36F03C0E9FF04C0EAFF05C0E1FF5C
:1007800006C0E2FFEECFE6FF054A062A03C001F0ED
:1007900004C002F0034A042A01C0E9FF02C0EAFFD4
:1007A000EE50000AD8E1A0C000F0A1C001F0120094
:1007B0000001A66BA76BA0C0A8F0A1C0A9F0800E95
:1007C000A119006E800E005C02E1000EA05D0BE23C
:1007D000010EA66F000EA76FA0510008A86FA1C060
:1007E000A9F0000EA957A8C0AAF0A9C0ABF0A2C0FA
:1007F000ACF0A3C0ADF028DD060EA46F000EA56F0F
:10080000000E006EA551005C02E1A451000819E23F
:10081000A451A225E16EA551A321E26E010EA45DB3
:10082000006E000EA559016E0050A225E96E015020
:10083000A321EA6EEECFE6FF010EA45F000EA55BDA
:10084000DFD7A2C0E1FFA3C0E2FF200EE66EA651F3
:10085000A7111AE0A46BA56BA451A225E96EA551BE
:10086000A321EA6EEE50200A03E1A44BA52BF4D796
:10087000010EA45F000EA55BA451A225E16EA55157
:0A088000A321E26E2D0EE66E1200B9
:10088A00220E0C6E086A096A0A6A0B6A0C06D8B448
:10089A001FD0D8900B320A320932083203320232A0
:1008AA0001320032D8A0F2D70C06D8B409D00450CD
:1008BA0008260550092206500A2207500B22EAD7B9
:1008CA00045008260550092206500A2207500B2216
:0208DA0012000A
:1008DC0014EC06F09380938296908D909ADD928022
:1008EC00928492863A0EC16E050ED56EB00ECD6E08
:1008FC00F18CF18AF288F086F28A9D80F28CF28E6D
:10090C003CDD010EB16F4EDC0C0EB16F4BDC84A3E1
:10091C0020D1A06B1BDD00C085F001C086F0000E5D
:10092C00026E036EE80E046E030E056E000E066E6C
:10093C00076EA5DFFF0E046E030E056E000E066E2D
:10094C00076E82DD00C098F001C099F002C09AF0E9
:10095C0003C09BF0E80E046E030E056E000E066ECF
:10096C00076E72DD300E0024016E01C087F001505D
:10097C00300A03E1200E0001876F0001640E046E43
:10098C00000E056E066E076E98C000F099C001F05F
:10099C009AC002F09BC003F057DD0A0E046E000EE5
:1009AC00056E066E076E50DD08C000F009C001F040
:1009BC000AC002F00BC003F0300E0024886F0A0E40
:1009CC00046E000E056E066E076E98C000F099C09E
:1009DC0001F09AC002F09BC003F036DD0A0E046EE3
:1009EC00000E056E066E076E2FDD08C000F009C004
:1009FC0001F00AC002F00BC003F0300E0024896F26
:100A0C002E0E8A6F0A0E046E000E056E066E076EB1
:100A1C0098C000F099C001F09AC002F09BC003F09E
:100A2C0013DD08C000F009C001F00AC002F00BC0D1
:100A3C0003F0300E00248B6F200E8C6FDF0E8D6F49
:100A4C00430E8E6F200E8F6F906B010EA06F010EF8
:100A5C00A16F2A0EA26F000EA36F39DC0D0E0C6E67
:100A6C00FB0E0D6E0D2EFED70C2EFCD700000000D9
:100A7C00010EA06F080EA16F870EA26F000EA36F60
:100A8C0026DC18C0A0F019C0A1F07A0EA26F000EDF
:100A9C00A36F88DE7A0EA06F000EA16F4BDE84A1CF
:100AAC001ED0020EA06F010EA16F1A0EA26F000EC7
:100ABC00A36F0DDC0D0E0C6EFB0E0D6E0D2EFED706
:100ACC000C2EFCD700000000020EA06F080EA16FC8
:100ADC007A0EA26F000EA36F6DEC01F01ED0020E09
:100AEC00A06F010EA16F480EA26F000EA36F6DECEC
:100AFC0001F00D0E0C6EFB0E0D6E0D2EFED70C2E96
:100B0C00FCD700000000020EA06F080EA16F7A0E39
:100B1C00A26F000EA36F6DEC01F09B51000808E171
:100B2C009A51000805E19951010802E19851F40825
:100B3C0002E28D8001D08D90030E0B6E080E0C6EB0
:100B4C00770E0D6E0D2EFED70C2EFCD70B2EFAD772
:100B5C0032D0000E471802E1000E46180BE1010ED0
:100B6C00A06F010EA16F690EA26F000EA36F6DEC4A
:100B7C0001F00AD0010EA06F010EA16F580EA26FEA
:100B8C00000EA36F6DEC01F0020EA06F010EA16FB1
:100B9C00350EA26F000EA36F6DEC01F08D90030E5D
:100BAC000B6E080E0C6E770E0D6E0D2EFED70C2EE6
:0A0BBC00FCD70B2EFAD7ABD6FFD7FB
:100C280010EE18F0620E006E010E016EC60EF66E22
:0E0C38000B0EF76E000EF86E22EC02F01200AA
:020BC60000002D
:100BC80054656D706F3A20202020202020202000BE
:080BD8002047726175733A00B9
:010BE00030E4
:020BE100000012
:100BE3002041706572746520626F74616F203120DB
:010BF3000001
:020BF4000000FF
:100BF60054656D706F3A2020202020202020200090
:100C0600204D6F646F206C6F6E676F2036307320D7
:010C160000DD
:100C1700204D6F646F20637572746F2031307320BD
:010C270000CC
:020000040030CA
:0E000000000C1F1EFF8381FF0FC00FE00F409A
:00000001FF
